{
  "contractName": "LandRegistryPoC",
  "abi": [
    {
      "inputs": [],
      "stateMutability": "nonpayable",
      "type": "constructor"
    },
    {
      "anonymous": false,
      "inputs": [
        {
          "indexed": true,
          "internalType": "address",
          "name": "officer",
          "type": "address"
        }
      ],
      "name": "OfficerAdded",
      "type": "event"
    },
    {
      "anonymous": false,
      "inputs": [
        {
          "indexed": true,
          "internalType": "address",
          "name": "officer",
          "type": "address"
        }
      ],
      "name": "OfficerRemoved",
      "type": "event"
    },
    {
      "anonymous": false,
      "inputs": [
        {
          "indexed": true,
          "internalType": "uint256",
          "name": "id",
          "type": "uint256"
        },
        {
          "indexed": true,
          "internalType": "address",
          "name": "officer",
          "type": "address"
        },
        {
          "indexed": false,
          "internalType": "enum LandRegistryPoC.Status",
          "name": "status",
          "type": "uint8"
        }
      ],
      "name": "Reviewed",
      "type": "event"
    },
    {
      "anonymous": false,
      "inputs": [
        {
          "indexed": true,
          "internalType": "uint256",
          "name": "id",
          "type": "uint256"
        },
        {
          "indexed": true,
          "internalType": "address",
          "name": "owner",
          "type": "address"
        }
      ],
      "name": "Submitted",
      "type": "event"
    },
    {
      "anonymous": false,
      "inputs": [
        {
          "indexed": true,
          "internalType": "address",
          "name": "who",
          "type": "address"
        }
      ],
      "name": "SubmitterAdded",
      "type": "event"
    },
    {
      "inputs": [],
      "name": "admin",
      "outputs": [
        {
          "internalType": "address",
          "name": "",
          "type": "address"
        }
      ],
      "stateMutability": "view",
      "type": "function",
      "constant": true
    },
    {
      "inputs": [
        {
          "internalType": "uint256",
          "name": "",
          "type": "uint256"
        }
      ],
      "name": "approvalCount",
      "outputs": [
        {
          "internalType": "uint256",
          "name": "",
          "type": "uint256"
        }
      ],
      "stateMutability": "view",
      "type": "function",
      "constant": true
    },
    {
      "inputs": [
        {
          "internalType": "uint256",
          "name": "",
          "type": "uint256"
        },
        {
          "internalType": "address",
          "name": "",
          "type": "address"
        }
      ],
      "name": "approvals",
      "outputs": [
        {
          "internalType": "bool",
          "name": "",
          "type": "bool"
        }
      ],
      "stateMutability": "view",
      "type": "function",
      "constant": true
    },
    {
      "inputs": [
        {
          "internalType": "address",
          "name": "",
          "type": "address"
        }
      ],
      "name": "authorizedOfficers",
      "outputs": [
        {
          "internalType": "bool",
          "name": "",
          "type": "bool"
        }
      ],
      "stateMutability": "view",
      "type": "function",
      "constant": true
    },
    {
      "inputs": [
        {
          "internalType": "uint256",
          "name": "",
          "type": "uint256"
        }
      ],
      "name": "landPapers",
      "outputs": [
        {
          "internalType": "address",
          "name": "owner",
          "type": "address"
        },
        {
          "components": [
            {
              "internalType": "uint256",
              "name": "id",
              "type": "uint256"
            },
            {
              "internalType": "string",
              "name": "ownerName",
              "type": "string"
            },
            {
              "internalType": "string",
              "name": "locationAddress",
              "type": "string"
            },
            {
              "internalType": "string",
              "name": "areaSize",
              "type": "string"
            },
            {
              "internalType": "string",
              "name": "pictureHash",
              "type": "string"
            },
            {
              "internalType": "string",
              "name": "pictureUrl",
              "type": "string"
            }
          ],
          "internalType": "struct LandRegistryPoC.LandDetails",
          "name": "details",
          "type": "tuple"
        },
        {
          "internalType": "string",
          "name": "docHash",
          "type": "string"
        },
        {
          "internalType": "enum LandRegistryPoC.Status",
          "name": "status",
          "type": "uint8"
        }
      ],
      "stateMutability": "view",
      "type": "function",
      "constant": true
    },
    {
      "inputs": [],
      "name": "requiredApprovals",
      "outputs": [
        {
          "internalType": "uint256",
          "name": "",
          "type": "uint256"
        }
      ],
      "stateMutability": "view",
      "type": "function",
      "constant": true
    },
    {
      "inputs": [
        {
          "internalType": "address",
          "name": "",
          "type": "address"
        }
      ],
      "name": "submitters",
      "outputs": [
        {
          "internalType": "bool",
          "name": "",
          "type": "bool"
        }
      ],
      "stateMutability": "view",
      "type": "function",
      "constant": true
    },
    {
      "inputs": [
        {
          "internalType": "address",
          "name": "officer",
          "type": "address"
        }
      ],
      "name": "addOfficer",
      "outputs": [],
      "stateMutability": "nonpayable",
      "type": "function"
    },
    {
      "inputs": [
        {
          "internalType": "address",
          "name": "officer",
          "type": "address"
        }
      ],
      "name": "removeOfficer",
      "outputs": [],
      "stateMutability": "nonpayable",
      "type": "function"
    },
    {
      "inputs": [
        {
          "internalType": "address",
          "name": "who",
          "type": "address"
        }
      ],
      "name": "addSubmitter",
      "outputs": [],
      "stateMutability": "nonpayable",
      "type": "function"
    },
    {
      "inputs": [
        {
          "components": [
            {
              "internalType": "uint256",
              "name": "id",
              "type": "uint256"
            },
            {
              "internalType": "string",
              "name": "ownerName",
              "type": "string"
            },
            {
              "internalType": "string",
              "name": "locationAddress",
              "type": "string"
            },
            {
              "internalType": "string",
              "name": "areaSize",
              "type": "string"
            },
            {
              "internalType": "string",
              "name": "pictureHash",
              "type": "string"
            },
            {
              "internalType": "string",
              "name": "pictureUrl",
              "type": "string"
            }
          ],
          "internalType": "struct LandRegistryPoC.LandDetails",
          "name": "details",
          "type": "tuple"
        },
        {
          "internalType": "string",
          "name": "docHash",
          "type": "string"
        }
      ],
      "name": "submitLand",
      "outputs": [],
      "stateMutability": "nonpayable",
      "type": "function"
    },
    {
      "inputs": [
        {
          "internalType": "uint256",
          "name": "id",
          "type": "uint256"
        },
        {
          "internalType": "bool",
          "name": "approve",
          "type": "bool"
        }
      ],
      "name": "reviewLandMulti",
      "outputs": [],
      "stateMutability": "nonpayable",
      "type": "function"
    },
    {
      "inputs": [
        {
          "internalType": "uint256",
          "name": "id",
          "type": "uint256"
        }
      ],
      "name": "getLand",
      "outputs": [
        {
          "components": [
            {
              "internalType": "address",
              "name": "owner",
              "type": "address"
            },
            {
              "components": [
                {
                  "internalType": "uint256",
                  "name": "id",
                  "type": "uint256"
                },
                {
                  "internalType": "string",
                  "name": "ownerName",
                  "type": "string"
                },
                {
                  "internalType": "string",
                  "name": "locationAddress",
                  "type": "string"
                },
                {
                  "internalType": "string",
                  "name": "areaSize",
                  "type": "string"
                },
                {
                  "internalType": "string",
                  "name": "pictureHash",
                  "type": "string"
                },
                {
                  "internalType": "string",
                  "name": "pictureUrl",
                  "type": "string"
                }
              ],
              "internalType": "struct LandRegistryPoC.LandDetails",
              "name": "details",
              "type": "tuple"
            },
            {
              "internalType": "string",
              "name": "docHash",
              "type": "string"
            },
            {
              "internalType": "enum LandRegistryPoC.Status",
              "name": "status",
              "type": "uint8"
            }
          ],
          "internalType": "struct LandRegistryPoC.LandPaper",
          "name": "",
          "type": "tuple"
        }
      ],
      "stateMutability": "view",
      "type": "function",
      "constant": true
    },
    {
      "inputs": [
        {
          "internalType": "uint256",
          "name": "count",
          "type": "uint256"
        }
      ],
      "name": "setRequiredApprovals",
      "outputs": [],
      "stateMutability": "nonpayable",
      "type": "function"
    },
    {
      "inputs": [
        {
          "internalType": "uint256",
          "name": "id",
          "type": "uint256"
        },
        {
          "internalType": "address",
          "name": "officer",
          "type": "address"
        }
      ],
      "name": "hasReviewed",
      "outputs": [
        {
          "internalType": "bool",
          "name": "",
          "type": "bool"
        }
      ],
      "stateMutability": "view",
      "type": "function",
      "constant": true
    },
    {
      "inputs": [
        {
          "internalType": "address",
          "name": "who",
          "type": "address"
        }
      ],
      "name": "getRole",
      "outputs": [
        {
          "internalType": "enum LandRegistryPoC.Role",
          "name": "",
          "type": "uint8"
        }
      ],
      "stateMutability": "view",
      "type": "function",
      "constant": true
    }
  ],
  "bytecode": "0x6080604052600260015534801561001557600080fd5b50600080546001600160a01b0319163390811782558152600460209081526040808320805460ff1990811660019081179092556002909352922080549091169091179055611870806100686000396000f3fe608060405234801561001057600080fd5b50600436106101005760003560e01c8063719a0f8c11610097578063b89e613511610066578063b89e613514610269578063d9803cb21461027c578063f02dd53f1461028f578063f851a440146102af57600080fd5b8063719a0f8c1461020c5780637c7198cc1461021f57806399c1aadc14610232578063ab2850da1461023b57600080fd5b80632be9e04b116100d35780632be9e04b1461017857806340ad01ea1461019b57806344276733146101c95780634a7b7677146101e957600080fd5b80630656043514610105578063072900f91461013d578063222a242e146101525780632820627214610165575b600080fd5b6101286101133660046112ec565b60026020526000908152604090205460ff1681565b60405190151581526020015b60405180910390f35b61015061014b3660046112ec565b6102da565b005b61015061016036600461130e565b610359565b610150610173366004611327565b610388565b61018b61018636600461130e565b61060c565b6040516101349493929190611462565b6101bb6101a936600461130e565b60066020526000908152604090205481565b604051908152602001610134565b6101dc6101d73660046112ec565b6109ba565b60405161013491906114a8565b6101286101f73660046112ec565b60046020526000908152604090205460ff1681565b61015061021a3660046112ec565b610a33565b61012861022d3660046114c2565b610aa6565b6101bb60015481565b6101286102493660046114c2565b600560209081526000928352604080842090915290825290205460ff1681565b6101506102773660046114ee565b610ad3565b61015061028a3660046112ec565b610d15565b6102a261029d36600461130e565b610d8b565b604051610134919061158d565b6000546102c2906001600160a01b031681565b6040516001600160a01b039091168152602001610134565b6000546001600160a01b0316331461030d5760405162461bcd60e51b8152600401610304906115f5565b60405180910390fd5b6001600160a01b038116600081815260026020526040808220805460ff19166001179055517fb079bc2cbde1f186e0b351d4a87c4597e3ed098f571548617449e73506428d8b9190a250565b6000546001600160a01b031633146103835760405162461bcd60e51b8152600401610304906115f5565b600155565b3360009081526004602052604090205460ff166103d85760405162461bcd60e51b815260206004820152600e60248201526d2737ba1030b71037b33334b1b2b960911b6044820152606401610304565b6000828152600360205260409020546001600160a01b03166104285760405162461bcd60e51b8152602060048201526009602482015268139bdd08199bdd5b9960ba1b6044820152606401610304565b60008281526003602052604081206008015460ff16600281111561044e5761044e611438565b1461048f5760405162461bcd60e51b8152602060048201526011602482015270105b1c9958591e48199a5b985b1a5e9959607a1b6044820152606401610304565b600082815260056020908152604080832033845290915290205460ff16156104f95760405162461bcd60e51b815260206004820152601760248201527f416c726561647920726576696577656420627920796f750000000000000000006044820152606401610304565b60008281526005602090815260408083203384529091529020805460ff19166001179055806105805760008281526003602052604090819020600801805460ff191660029081179091559051339184917f884e0a4f90a8995c4699bee80810e2453ee9e668af0e20bc29f1dc71e7708a879161057491611619565b60405180910390a35050565b600082815260066020526040812080549161059a83611627565b9091555050600154600083815260066020526040902054106106085760008281526003602052604090819020600801805460ff191660019081179091559051339184917f884e0a4f90a8995c4699bee80810e2453ee9e668af0e20bc29f1dc71e7708a879161057491611619565b5050565b6003602090815260009182526040918290208054835160c0810190945260018201805485526002830180546001600160a01b039093169593949192918401916106549061164e565b80601f01602080910402602001604051908101604052809291908181526020018280546106809061164e565b80156106cd5780601f106106a2576101008083540402835291602001916106cd565b820191906000526020600020905b8154815290600101906020018083116106b057829003601f168201915b505050505081526020016002820180546106e69061164e565b80601f01602080910402602001604051908101604052809291908181526020018280546107129061164e565b801561075f5780601f106107345761010080835404028352916020019161075f565b820191906000526020600020905b81548152906001019060200180831161074257829003601f168201915b505050505081526020016003820180546107789061164e565b80601f01602080910402602001604051908101604052809291908181526020018280546107a49061164e565b80156107f15780601f106107c6576101008083540402835291602001916107f1565b820191906000526020600020905b8154815290600101906020018083116107d457829003601f168201915b5050505050815260200160048201805461080a9061164e565b80601f01602080910402602001604051908101604052809291908181526020018280546108369061164e565b80156108835780601f1061085857610100808354040283529160200191610883565b820191906000526020600020905b81548152906001019060200180831161086657829003601f168201915b5050505050815260200160058201805461089c9061164e565b80601f01602080910402602001604051908101604052809291908181526020018280546108c89061164e565b80156109155780601f106108ea57610100808354040283529160200191610915565b820191906000526020600020905b8154815290600101906020018083116108f857829003601f168201915b5050505050815250509080600701805461092e9061164e565b80601f016020809104026020016040519081016040528092919081815260200182805461095a9061164e565b80156109a75780601f1061097c576101008083540402835291602001916109a7565b820191906000526020600020905b81548152906001019060200180831161098a57829003601f168201915b5050506008909301549192505060ff1684565b600080546001600160a01b03908116908316036109d957506003919050565b6001600160a01b03821660009081526004602052604090205460ff1615610a0257506002919050565b6001600160a01b03821660009081526002602052604090205460ff1615610a2b57506001919050565b506000919050565b6000546001600160a01b03163314610a5d5760405162461bcd60e51b8152600401610304906115f5565b6001600160a01b038116600081815260046020526040808220805460ff19169055517fc71ac73682f965d639a2f97202d5b162f5ea75f1ef0e933bad7f1db870a4c2549190a250565b60008281526005602090815260408083206001600160a01b038516845290915290205460ff165b92915050565b3360009081526002602052604090205460ff16610b245760405162461bcd60e51b815260206004820152600f60248201526e2737ba10309039bab136b4ba3a32b960891b6044820152606401610304565b82356000818152600360205260409020546001600160a01b031615610b775760405162461bcd60e51b815260206004820152600960248201526849442065786973747360b81b6044820152606401610304565b604080516080810190915233815260208101610b9286611754565b815260200184848080601f016020809104026020016040519081016040528093929190818152602001838380828437600092018290525093855250505060209182018190528381526003825260409020825181546001600160a01b0319166001600160a01b0390911617815582820151805160018301908155818401518051939492939192610c29926002870192909101906111d0565b5060408201518051610c459160028401916020909101906111d0565b5060608201518051610c619160038401916020909101906111d0565b5060808201518051610c7d9160048401916020909101906111d0565b5060a08201518051610c999160058401916020909101906111d0565b50505060408201518051610cb79160078401916020909101906111d0565b50606082015160088201805460ff19166001836002811115610cdb57610cdb611438565b02179055505060405133915082907fa1a7fb1df88af97284790f533c84a4284660c23f7631de9a03a258de840e4c1590600090a350505050565b6000546001600160a01b03163314610d3f5760405162461bcd60e51b8152600401610304906115f5565b6001600160a01b038116600081815260046020526040808220805460ff19166001179055517f0a5e350574f3293d09c9df68b92156ccec15be9e07b6cab9616ec2b486d2a4d99190a250565b610d93611254565b6000828152600360205260409020546001600160a01b0316610de35760405162461bcd60e51b8152602060048201526009602482015268139bdd08199bdd5b9960ba1b6044820152606401610304565b600082815260036020908152604091829020825160808101845281546001600160a01b03168152835160c0810190945260018201805485526002830180549295939486810194939084019190610e389061164e565b80601f0160208091040260200160405190810160405280929190818152602001828054610e649061164e565b8015610eb15780601f10610e8657610100808354040283529160200191610eb1565b820191906000526020600020905b815481529060010190602001808311610e9457829003601f168201915b50505050508152602001600282018054610eca9061164e565b80601f0160208091040260200160405190810160405280929190818152602001828054610ef69061164e565b8015610f435780601f10610f1857610100808354040283529160200191610f43565b820191906000526020600020905b815481529060010190602001808311610f2657829003601f168201915b50505050508152602001600382018054610f5c9061164e565b80601f0160208091040260200160405190810160405280929190818152602001828054610f889061164e565b8015610fd55780601f10610faa57610100808354040283529160200191610fd5565b820191906000526020600020905b815481529060010190602001808311610fb857829003601f168201915b50505050508152602001600482018054610fee9061164e565b80601f016020809104026020016040519081016040528092919081815260200182805461101a9061164e565b80156110675780601f1061103c57610100808354040283529160200191611067565b820191906000526020600020905b81548152906001019060200180831161104a57829003601f168201915b505050505081526020016005820180546110809061164e565b80601f01602080910402602001604051908101604052809291908181526020018280546110ac9061164e565b80156110f95780601f106110ce576101008083540402835291602001916110f9565b820191906000526020600020905b8154815290600101906020018083116110dc57829003601f168201915b50505050508152505081526020016007820180546111169061164e565b80601f01602080910402602001604051908101604052809291908181526020018280546111429061164e565b801561118f5780601f106111645761010080835404028352916020019161118f565b820191906000526020600020905b81548152906001019060200180831161117257829003601f168201915b5050509183525050600882015460209091019060ff1660028111156111b6576111b6611438565b60028111156111c7576111c7611438565b90525092915050565b8280546111dc9061164e565b90600052602060002090601f0160209004810192826111fe5760008555611244565b82601f1061121757805160ff1916838001178555611244565b82800160010185558215611244579182015b82811115611244578251825591602001919060010190611229565b506112509291506112bb565b5090565b604051806080016040528060006001600160a01b031681526020016112a86040518060c001604052806000815260200160608152602001606081526020016060815260200160608152602001606081525090565b8152606060208201526040016000905290565b5b8082111561125057600081556001016112bc565b80356001600160a01b03811681146112e757600080fd5b919050565b6000602082840312156112fe57600080fd5b611307826112d0565b9392505050565b60006020828403121561132057600080fd5b5035919050565b6000806040838503121561133a57600080fd5b823591506020830135801515811461135157600080fd5b809150509250929050565b6000815180845260005b8181101561138257602081850181015186830182015201611366565b81811115611394576000602083870101525b50601f01601f19169290920160200192915050565b805182526000602082015160c060208501526113c860c085018261135c565b9050604083015184820360408601526113e1828261135c565b915050606083015184820360608601526113fb828261135c565b91505060808301518482036080860152611415828261135c565b91505060a083015184820360a086015261142f828261135c565b95945050505050565b634e487b7160e01b600052602160045260246000fd5b6003811061145e5761145e611438565b9052565b6001600160a01b0385168152608060208201819052600090611486908301866113a9565b8281036040840152611498818661135c565b91505061142f606083018461144e565b60208101600483106114bc576114bc611438565b91905290565b600080604083850312156114d557600080fd5b823591506114e5602084016112d0565b90509250929050565b60008060006040848603121561150357600080fd5b833567ffffffffffffffff8082111561151b57600080fd5b9085019060c0828803121561152f57600080fd5b9093506020850135908082111561154557600080fd5b818601915086601f83011261155957600080fd5b81358181111561156857600080fd5b87602082850101111561157a57600080fd5b6020830194508093505050509250925092565b602080825282516001600160a01b031682820152820151608060408301526000906115bb60a08401826113a9565b90506040840151601f198483030160608501526115d8828261135c565b91505060608401516115ed608085018261144e565b509392505050565b6020808252600a908201526927b7363c9030b236b4b760b11b604082015260600190565b60208101610acd828461144e565b60006001820161164757634e487b7160e01b600052601160045260246000fd5b5060010190565b600181811c9082168061166257607f821691505b60208210810361168257634e487b7160e01b600052602260045260246000fd5b50919050565b634e487b7160e01b600052604160045260246000fd5b60405160c0810167ffffffffffffffff811182821017156116c1576116c1611688565b60405290565b600082601f8301126116d857600080fd5b813567ffffffffffffffff808211156116f3576116f3611688565b604051601f8301601f19908116603f0116810190828211818310171561171b5761171b611688565b8160405283815286602085880101111561173457600080fd5b836020870160208301376000602085830101528094505050505092915050565b600060c0823603121561176657600080fd5b61176e61169e565b82358152602083013567ffffffffffffffff8082111561178d57600080fd5b611799368387016116c7565b602084015260408501359150808211156117b257600080fd5b6117be368387016116c7565b604084015260608501359150808211156117d757600080fd5b6117e3368387016116c7565b606084015260808501359150808211156117fc57600080fd5b611808368387016116c7565b608084015260a085013591508082111561182157600080fd5b5061182e368286016116c7565b60a0830152509291505056fea26469706673582212203be5e218b7fe04143a3daf4b82607fb4db1d20bbd1bc230db35b357ac450b83864736f6c634300080d0033",
  "immutableReferences": {},
  "source": "// SPDX-License-Identifier: MIT\r\npragma solidity ^0.8.13;\r\n\r\ncontract LandRegistryPoC {\r\n    enum Status { Pending, Approved, Rejected }\r\n    enum Role   { None, Submitter, Officer, Admin }\r\n\r\n    struct LandDetails {\r\n        uint    id;\r\n        string  ownerName;\r\n        string  locationAddress;\r\n        string  areaSize;\r\n        string  pictureHash;\r\n        string  pictureUrl;\r\n    }\r\n\r\n    struct LandPaper {\r\n        address    owner;\r\n        LandDetails details;\r\n        string     docHash;\r\n        Status     status;\r\n    }\r\n\r\n    address public admin;\r\n    uint    public requiredApprovals = 2;\r\n\r\n    mapping(address => bool)                    public submitters;\r\n    mapping(uint    => LandPaper)               public landPapers;\r\n    mapping(address => bool)                    public authorizedOfficers;\r\n    mapping(uint    => mapping(address=>bool)) public approvals;\r\n    mapping(uint    => uint)                    public approvalCount;\r\n\r\n    event Submitted(uint indexed id, address indexed owner);\r\n    event Reviewed(uint indexed id, address indexed officer, Status status);\r\n    event OfficerAdded(address indexed officer);\r\n    event OfficerRemoved(address indexed officer);\r\n    event SubmitterAdded(address indexed who);\r\n\r\n    constructor() {\r\n        admin = msg.sender;\r\n        authorizedOfficers[msg.sender] = true;\r\n        submitters[msg.sender] = true;\r\n    }\r\n\r\n    modifier onlyAdmin() {\r\n        require(msg.sender == admin, \"Only admin\");\r\n        _;\r\n    }\r\n\r\n    modifier onlyOfficer() {\r\n        require(authorizedOfficers[msg.sender], \"Not an officer\");\r\n        _;\r\n    }\r\n\r\n    modifier onlySubmitter() {\r\n        require(submitters[msg.sender], \"Not a submitter\");\r\n        _;\r\n    }\r\n\r\n    function addOfficer(address officer) external onlyAdmin {\r\n        authorizedOfficers[officer] = true;\r\n        emit OfficerAdded(officer);\r\n    }\r\n\r\n    function removeOfficer(address officer) external onlyAdmin {\r\n        authorizedOfficers[officer] = false;\r\n        emit OfficerRemoved(officer);\r\n    }\r\n\r\n    function addSubmitter(address who) external onlyAdmin {\r\n        submitters[who] = true;\r\n        emit SubmitterAdded(who);\r\n    }\r\n\r\n    /// @notice Submit a new land paper; details.id carries the identifier\r\n    function submitLand(\r\n        LandDetails calldata details,\r\n        string calldata docHash\r\n    ) external onlySubmitter {\r\n        uint id = details.id;\r\n        require(landPapers[id].owner == address(0), \"ID exists\");\r\n\r\n        landPapers[id] = LandPaper(\r\n            msg.sender,\r\n            details,\r\n            docHash,\r\n            Status.Pending\r\n        );\r\n        emit Submitted(id, msg.sender);\r\n    }\r\n\r\n    function reviewLandMulti(uint id, bool approve) external onlyOfficer {\r\n        require(landPapers[id].owner != address(0), \"Not found\");\r\n        require(landPapers[id].status == Status.Pending, \"Already finalized\");\r\n        require(!approvals[id][msg.sender], \"Already reviewed by you\");\r\n\r\n        approvals[id][msg.sender] = true;\r\n\r\n        if (!approve) {\r\n            landPapers[id].status = Status.Rejected;\r\n            emit Reviewed(id, msg.sender, Status.Rejected);\r\n            return;\r\n        }\r\n\r\n        approvalCount[id]++;\r\n        if (approvalCount[id] >= requiredApprovals) {\r\n            landPapers[id].status = Status.Approved;\r\n            emit Reviewed(id, msg.sender, Status.Approved);\r\n        }\r\n    }\r\n\r\n    function getLand(uint id) external view returns (LandPaper memory) {\r\n        require(landPapers[id].owner != address(0), \"Not found\");\r\n        return landPapers[id];\r\n    }\r\n\r\n    function setRequiredApprovals(uint count) external onlyAdmin {\r\n        requiredApprovals = count;\r\n    }\r\n\r\n    function hasReviewed(uint id, address officer) external view returns (bool) {\r\n        return approvals[id][officer];\r\n    }\r\n\r\n    function getRole(address who) external view returns (Role) {\r\n        if (who == admin) return Role.Admin;\r\n        if (authorizedOfficers[who]) return Role.Officer;\r\n        if (submitters[who]) return Role.Submitter;\r\n        return Role.None;\r\n    }\r\n}\r\n",
  "sourcePath": "C:\\Users\\TUF\\Downloads\\senior_blockchain\\blockcahin_senior_pro\\blockchain\\blockchain\\contracts\\LandRegistryPoc.sol",
  "compiler": {
    "name": "solc",
    "version": "0.8.13+commit.abaa5c0e.Emscripten.clang"
  },
  "schemaVersion": "3.4.16",
  "updatedAt": "2025-05-19T02:28:24.015Z",
  "networkType": "ethereum",
  "devdoc": {
    "kind": "dev",
    "methods": {},
    "version": 1
  },
  "userdoc": {
    "kind": "user",
    "methods": {
      "submitLand((uint256,string,string,string,string,string),string)": {
        "notice": "Submit a new land paper; details.id carries the identifier"
      }
    },
    "version": 1
  }
}