{
  "contractName": "LandRegistryPoC",
  "abi": [
    {
      "inputs": [],
      "stateMutability": "nonpayable",
      "type": "constructor"
    },
    {
      "anonymous": false,
      "inputs": [
        {
          "indexed": true,
          "internalType": "address",
          "name": "officer",
          "type": "address"
        }
      ],
      "name": "OfficerAdded",
      "type": "event"
    },
    {
      "anonymous": false,
      "inputs": [
        {
          "indexed": true,
          "internalType": "address",
          "name": "officer",
          "type": "address"
        }
      ],
      "name": "OfficerRemoved",
      "type": "event"
    },
    {
      "anonymous": false,
      "inputs": [
        {
          "indexed": true,
          "internalType": "uint256",
          "name": "id",
          "type": "uint256"
        },
        {
          "indexed": true,
          "internalType": "address",
          "name": "officer",
          "type": "address"
        },
        {
          "indexed": false,
          "internalType": "enum LandRegistryPoC.Status",
          "name": "status",
          "type": "uint8"
        }
      ],
      "name": "Reviewed",
      "type": "event"
    },
    {
      "anonymous": false,
      "inputs": [
        {
          "indexed": true,
          "internalType": "uint256",
          "name": "id",
          "type": "uint256"
        },
        {
          "indexed": true,
          "internalType": "address",
          "name": "owner",
          "type": "address"
        }
      ],
      "name": "Submitted",
      "type": "event"
    },
    {
      "anonymous": false,
      "inputs": [
        {
          "indexed": true,
          "internalType": "address",
          "name": "who",
          "type": "address"
        }
      ],
      "name": "SubmitterAdded",
      "type": "event"
    },
    {
      "inputs": [],
      "name": "admin",
      "outputs": [
        {
          "internalType": "address",
          "name": "",
          "type": "address"
        }
      ],
      "stateMutability": "view",
      "type": "function",
      "constant": true
    },
    {
      "inputs": [
        {
          "internalType": "uint256",
          "name": "",
          "type": "uint256"
        }
      ],
      "name": "approvalCount",
      "outputs": [
        {
          "internalType": "uint256",
          "name": "",
          "type": "uint256"
        }
      ],
      "stateMutability": "view",
      "type": "function",
      "constant": true
    },
    {
      "inputs": [
        {
          "internalType": "uint256",
          "name": "",
          "type": "uint256"
        },
        {
          "internalType": "address",
          "name": "",
          "type": "address"
        }
      ],
      "name": "approvals",
      "outputs": [
        {
          "internalType": "bool",
          "name": "",
          "type": "bool"
        }
      ],
      "stateMutability": "view",
      "type": "function",
      "constant": true
    },
    {
      "inputs": [
        {
          "internalType": "address",
          "name": "",
          "type": "address"
        }
      ],
      "name": "authorizedOfficers",
      "outputs": [
        {
          "internalType": "bool",
          "name": "",
          "type": "bool"
        }
      ],
      "stateMutability": "view",
      "type": "function",
      "constant": true
    },
    {
      "inputs": [
        {
          "internalType": "uint256",
          "name": "",
          "type": "uint256"
        }
      ],
      "name": "landPapers",
      "outputs": [
        {
          "internalType": "uint256",
          "name": "id",
          "type": "uint256"
        },
        {
          "internalType": "address",
          "name": "owner",
          "type": "address"
        },
        {
          "components": [
            {
              "internalType": "string",
              "name": "ownerName",
              "type": "string"
            },
            {
              "internalType": "string",
              "name": "locationAddress",
              "type": "string"
            },
            {
              "internalType": "string",
              "name": "areaSize",
              "type": "string"
            },
            {
              "internalType": "string",
              "name": "pictureHash",
              "type": "string"
            },
            {
              "internalType": "string",
              "name": "pictureUrl",
              "type": "string"
            }
          ],
          "internalType": "struct LandRegistryPoC.LandDetails",
          "name": "details",
          "type": "tuple"
        },
        {
          "internalType": "string",
          "name": "docHash",
          "type": "string"
        },
        {
          "internalType": "enum LandRegistryPoC.Status",
          "name": "status",
          "type": "uint8"
        }
      ],
      "stateMutability": "view",
      "type": "function",
      "constant": true
    },
    {
      "inputs": [],
      "name": "nextId",
      "outputs": [
        {
          "internalType": "uint256",
          "name": "",
          "type": "uint256"
        }
      ],
      "stateMutability": "view",
      "type": "function",
      "constant": true
    },
    {
      "inputs": [],
      "name": "requiredApprovals",
      "outputs": [
        {
          "internalType": "uint256",
          "name": "",
          "type": "uint256"
        }
      ],
      "stateMutability": "view",
      "type": "function",
      "constant": true
    },
    {
      "inputs": [
        {
          "internalType": "address",
          "name": "",
          "type": "address"
        }
      ],
      "name": "submitters",
      "outputs": [
        {
          "internalType": "bool",
          "name": "",
          "type": "bool"
        }
      ],
      "stateMutability": "view",
      "type": "function",
      "constant": true
    },
    {
      "inputs": [
        {
          "internalType": "address",
          "name": "officer",
          "type": "address"
        }
      ],
      "name": "addOfficer",
      "outputs": [],
      "stateMutability": "nonpayable",
      "type": "function"
    },
    {
      "inputs": [
        {
          "internalType": "address",
          "name": "officer",
          "type": "address"
        }
      ],
      "name": "removeOfficer",
      "outputs": [],
      "stateMutability": "nonpayable",
      "type": "function"
    },
    {
      "inputs": [
        {
          "internalType": "address",
          "name": "who",
          "type": "address"
        }
      ],
      "name": "addSubmitter",
      "outputs": [],
      "stateMutability": "nonpayable",
      "type": "function"
    },
    {
      "inputs": [
        {
          "internalType": "string",
          "name": "ownerName",
          "type": "string"
        },
        {
          "internalType": "string",
          "name": "locationAddress",
          "type": "string"
        },
        {
          "internalType": "string",
          "name": "areaSize",
          "type": "string"
        },
        {
          "internalType": "string",
          "name": "pictureHash",
          "type": "string"
        },
        {
          "internalType": "string",
          "name": "pictureUrl",
          "type": "string"
        },
        {
          "internalType": "string",
          "name": "docHash",
          "type": "string"
        }
      ],
      "name": "submitLand",
      "outputs": [],
      "stateMutability": "nonpayable",
      "type": "function"
    },
    {
      "inputs": [
        {
          "internalType": "uint256",
          "name": "id",
          "type": "uint256"
        },
        {
          "internalType": "bool",
          "name": "approve",
          "type": "bool"
        }
      ],
      "name": "reviewLandMulti",
      "outputs": [],
      "stateMutability": "nonpayable",
      "type": "function"
    },
    {
      "inputs": [
        {
          "internalType": "uint256",
          "name": "id",
          "type": "uint256"
        }
      ],
      "name": "getLand",
      "outputs": [
        {
          "components": [
            {
              "internalType": "uint256",
              "name": "id",
              "type": "uint256"
            },
            {
              "internalType": "address",
              "name": "owner",
              "type": "address"
            },
            {
              "components": [
                {
                  "internalType": "string",
                  "name": "ownerName",
                  "type": "string"
                },
                {
                  "internalType": "string",
                  "name": "locationAddress",
                  "type": "string"
                },
                {
                  "internalType": "string",
                  "name": "areaSize",
                  "type": "string"
                },
                {
                  "internalType": "string",
                  "name": "pictureHash",
                  "type": "string"
                },
                {
                  "internalType": "string",
                  "name": "pictureUrl",
                  "type": "string"
                }
              ],
              "internalType": "struct LandRegistryPoC.LandDetails",
              "name": "details",
              "type": "tuple"
            },
            {
              "internalType": "string",
              "name": "docHash",
              "type": "string"
            },
            {
              "internalType": "enum LandRegistryPoC.Status",
              "name": "status",
              "type": "uint8"
            }
          ],
          "internalType": "struct LandRegistryPoC.LandPaper",
          "name": "",
          "type": "tuple"
        }
      ],
      "stateMutability": "view",
      "type": "function",
      "constant": true
    },
    {
      "inputs": [
        {
          "internalType": "uint256",
          "name": "count",
          "type": "uint256"
        }
      ],
      "name": "setRequiredApprovals",
      "outputs": [],
      "stateMutability": "nonpayable",
      "type": "function"
    },
    {
      "inputs": [
        {
          "internalType": "uint256",
          "name": "id",
          "type": "uint256"
        },
        {
          "internalType": "address",
          "name": "officer",
          "type": "address"
        }
      ],
      "name": "hasReviewed",
      "outputs": [
        {
          "internalType": "bool",
          "name": "",
          "type": "bool"
        }
      ],
      "stateMutability": "view",
      "type": "function",
      "constant": true
    },
    {
      "inputs": [
        {
          "internalType": "address",
          "name": "who",
          "type": "address"
        }
      ],
      "name": "getRole",
      "outputs": [
        {
          "internalType": "enum LandRegistryPoC.Role",
          "name": "",
          "type": "uint8"
        }
      ],
      "stateMutability": "view",
      "type": "function",
      "constant": true
    }
  ],
  "bytecode": "0x60806040526002805534801561001457600080fd5b50600080546001600160a01b0319163390811782558152600560209081526040808320805460ff19908116600190811790925560039093529220805490911690911790556118bb806100676000396000f3fe608060405234801561001057600080fd5b506004361061010b5760003560e01c80634a7b7677116100a257806399c1aadc1161007157806399c1aadc1461025a578063ab2850da14610263578063d9803cb214610291578063f02dd53f146102a4578063f851a440146102c457600080fd5b80634a7b76771461020857806361b8ce8c1461022b578063719a0f8c146102345780637c7198cc1461024757600080fd5b806328206272116100de57806328206272146101835780632be9e04b1461019657806340ad01ea146101ba57806344276733146101e857600080fd5b80630656043514610110578063072900f914610148578063170295871461015d578063222a242e14610170575b600080fd5b61013361011e3660046113ec565b60036020526000908152604090205460ff1681565b60405190151581526020015b60405180910390f35b61015b6101563660046113ec565b6102ef565b005b61015b61016b366004611457565b61036e565b61015b61017e36600461159a565b6106c5565b61015b6101913660046115b3565b6106f4565b6101a96101a436600461159a565b610965565b60405161013f9594939291906116e4565b6101da6101c836600461159a565b60076020526000908152604090205481565b60405190815260200161013f565b6101fb6101f63660046113ec565b610d0d565b60405161013f919061173a565b6101336102163660046113ec565b60056020526000908152604090205460ff1681565b6101da60015481565b61015b6102423660046113ec565b610d8b565b610133610255366004611754565b610dfe565b6101da60025481565b610133610271366004611754565b600660209081526000928352604080842090915290825290205460ff1681565b61015b61029f3660046113ec565b610e2b565b6102b76102b236600461159a565b610ea1565b60405161013f9190611780565b6000546102d7906001600160a01b031681565b6040516001600160a01b03909116815260200161013f565b6000546001600160a01b031633146103225760405162461bcd60e51b8152600401610319906117f2565b60405180910390fd5b6001600160a01b038116600081815260036020526040808220805460ff19166001179055517fb079bc2cbde1f186e0b351d4a87c4597e3ed098f571548617449e73506428d8b9190a250565b3360009081526003602052604090205460ff166103bf5760405162461bcd60e51b815260206004820152600f60248201526e2737ba10309039bab136b4ba3a32b960891b6044820152606401610319565b6040518060a001604052806001548152602001336001600160a01b031681526020016040518060a001604052808f8f8080601f016020809104026020016040519081016040528093929190818152602001838380828437600081840152601f19601f8201169050808301925050505050505081526020018d8d8080601f016020809104026020016040519081016040528093929190818152602001838380828437600092019190915250505090825250604080516020601f8e018190048102820181019092528c815291810191908d908d9081908401838280828437600092019190915250505090825250604080516020601f8c018190048102820181019092528a815291810191908b908b9081908401838280828437600092019190915250505090825250604080516020601f8a018190048102820181019092528881529181019190899089908190840183828082843760009201919091525050509152508152604080516020601f8601819004810282018101909252848152918101919085908590819084018382808284376000920182905250938552505060209092019150905260018054600090815260046020908152604091829020845181558482015193810180546001600160a01b0319166001600160a01b03909516949094179093559083015180518051919260028501926105be92849201906112d5565b5060208281015180516105d792600185019201906112d5565b50604082015180516105f39160028401916020909101906112d5565b506060820151805161060f9160038401916020909101906112d5565b506080820151805161062b9160048401916020909101906112d5565b505050606082015180516106499160078401916020909101906112d5565b50608082015160088201805460ff1916600183600281111561066d5761066d6116ba565b0217905550506001546040513392507fa1a7fb1df88af97284790f533c84a4284660c23f7631de9a03a258de840e4c1590600090a3600180549060006106b283611816565b9190505550505050505050505050505050565b6000546001600160a01b031633146106ef5760405162461bcd60e51b8152600401610319906117f2565b600255565b3360009081526005602052604090205460ff166107445760405162461bcd60e51b815260206004820152600e60248201526d2737ba1030b71037b33334b1b2b960911b6044820152606401610319565b60015482106107815760405162461bcd60e51b8152602060048201526009602482015268139bdd08199bdd5b9960ba1b6044820152606401610319565b60008281526004602052604081206008015460ff1660028111156107a7576107a76116ba565b146107e85760405162461bcd60e51b8152602060048201526011602482015270105b1c9958591e48199a5b985b1a5e9959607a1b6044820152606401610319565b600082815260066020908152604080832033845290915290205460ff16156108525760405162461bcd60e51b815260206004820152601760248201527f416c726561647920726576696577656420627920796f750000000000000000006044820152606401610319565b60008281526006602090815260408083203384529091529020805460ff19166001179055806108d95760008281526004602052604090819020600801805460ff191660029081179091559051339184917f884e0a4f90a8995c4699bee80810e2453ee9e668af0e20bc29f1dc71e7708a87916108cd9161183d565b60405180910390a35050565b60008281526007602052604081208054916108f383611816565b9091555050600254600083815260076020526040902054106109615760008281526004602052604090819020600801805460ff191660019081179091559051339184917f884e0a4f90a8995c4699bee80810e2453ee9e668af0e20bc29f1dc71e7708a87916108cd9161183d565b5050565b6004602052600090815260409081902080546001820154835160a0810190945260028301805492946001600160a01b039092169392829082906109a79061184b565b80601f01602080910402602001604051908101604052809291908181526020018280546109d39061184b565b8015610a205780601f106109f557610100808354040283529160200191610a20565b820191906000526020600020905b815481529060010190602001808311610a0357829003601f168201915b50505050508152602001600182018054610a399061184b565b80601f0160208091040260200160405190810160405280929190818152602001828054610a659061184b565b8015610ab25780601f10610a8757610100808354040283529160200191610ab2565b820191906000526020600020905b815481529060010190602001808311610a9557829003601f168201915b50505050508152602001600282018054610acb9061184b565b80601f0160208091040260200160405190810160405280929190818152602001828054610af79061184b565b8015610b445780601f10610b1957610100808354040283529160200191610b44565b820191906000526020600020905b815481529060010190602001808311610b2757829003601f168201915b50505050508152602001600382018054610b5d9061184b565b80601f0160208091040260200160405190810160405280929190818152602001828054610b899061184b565b8015610bd65780601f10610bab57610100808354040283529160200191610bd6565b820191906000526020600020905b815481529060010190602001808311610bb957829003601f168201915b50505050508152602001600482018054610bef9061184b565b80601f0160208091040260200160405190810160405280929190818152602001828054610c1b9061184b565b8015610c685780601f10610c3d57610100808354040283529160200191610c68565b820191906000526020600020905b815481529060010190602001808311610c4b57829003601f168201915b50505050508152505090806007018054610c819061184b565b80601f0160208091040260200160405190810160405280929190818152602001828054610cad9061184b565b8015610cfa5780601f10610ccf57610100808354040283529160200191610cfa565b820191906000526020600020905b815481529060010190602001808311610cdd57829003601f168201915b5050506008909301549192505060ff1685565b600080546001600160a01b0390811690831603610d2c57506003919050565b6001600160a01b03821660009081526005602052604090205460ff1615610d5557506002919050565b6001600160a01b03821660009081526003602052604090205460ff1615610d7e57506001919050565b506000919050565b919050565b6000546001600160a01b03163314610db55760405162461bcd60e51b8152600401610319906117f2565b6001600160a01b038116600081815260056020526040808220805460ff19169055517fc71ac73682f965d639a2f97202d5b162f5ea75f1ef0e933bad7f1db870a4c2549190a250565b60008281526006602090815260408083206001600160a01b038516845290915290205460ff165b92915050565b6000546001600160a01b03163314610e555760405162461bcd60e51b8152600401610319906117f2565b6001600160a01b038116600081815260056020526040808220805460ff19166001179055517f0a5e350574f3293d09c9df68b92156ccec15be9e07b6cab9616ec2b486d2a4d99190a250565b610ea9611359565b6001548210610ee65760405162461bcd60e51b8152602060048201526009602482015268139bdd08199bdd5b9960ba1b6044820152606401610319565b600082815260046020908152604091829020825160a080820185528254825260018301546001600160a01b0316938201939093528351928301845260028201805491949293928501929182908290610f3d9061184b565b80601f0160208091040260200160405190810160405280929190818152602001828054610f699061184b565b8015610fb65780601f10610f8b57610100808354040283529160200191610fb6565b820191906000526020600020905b815481529060010190602001808311610f9957829003601f168201915b50505050508152602001600182018054610fcf9061184b565b80601f0160208091040260200160405190810160405280929190818152602001828054610ffb9061184b565b80156110485780601f1061101d57610100808354040283529160200191611048565b820191906000526020600020905b81548152906001019060200180831161102b57829003601f168201915b505050505081526020016002820180546110619061184b565b80601f016020809104026020016040519081016040528092919081815260200182805461108d9061184b565b80156110da5780601f106110af576101008083540402835291602001916110da565b820191906000526020600020905b8154815290600101906020018083116110bd57829003601f168201915b505050505081526020016003820180546110f39061184b565b80601f016020809104026020016040519081016040528092919081815260200182805461111f9061184b565b801561116c5780601f106111415761010080835404028352916020019161116c565b820191906000526020600020905b81548152906001019060200180831161114f57829003601f168201915b505050505081526020016004820180546111859061184b565b80601f01602080910402602001604051908101604052809291908181526020018280546111b19061184b565b80156111fe5780601f106111d3576101008083540402835291602001916111fe565b820191906000526020600020905b8154815290600101906020018083116111e157829003601f168201915b505050505081525050815260200160078201805461121b9061184b565b80601f01602080910402602001604051908101604052809291908181526020018280546112479061184b565b80156112945780601f1061126957610100808354040283529160200191611294565b820191906000526020600020905b81548152906001019060200180831161127757829003601f168201915b5050509183525050600882015460209091019060ff1660028111156112bb576112bb6116ba565b60028111156112cc576112cc6116ba565b90525092915050565b8280546112e19061184b565b90600052602060002090601f0160209004810192826113035760008555611349565b82601f1061131c57805160ff1916838001178555611349565b82800160010185558215611349579182015b8281111561134957825182559160200191906001019061132e565b506113559291506113c0565b5090565b6040518060a001604052806000815260200160006001600160a01b031681526020016113ad6040518060a0016040528060608152602001606081526020016060815260200160608152602001606081525090565b8152606060208201526040016000905290565b5b8082111561135557600081556001016113c1565b80356001600160a01b0381168114610d8657600080fd5b6000602082840312156113fe57600080fd5b611407826113d5565b9392505050565b60008083601f84011261142057600080fd5b50813567ffffffffffffffff81111561143857600080fd5b60208301915083602082850101111561145057600080fd5b9250929050565b60008060008060008060008060008060008060c08d8f03121561147957600080fd5b67ffffffffffffffff8d35111561148f57600080fd5b61149c8e8e358f0161140e565b909c509a5067ffffffffffffffff60208e013511156114ba57600080fd5b6114ca8e60208f01358f0161140e565b909a50985067ffffffffffffffff60408e013511156114e857600080fd5b6114f88e60408f01358f0161140e565b909850965067ffffffffffffffff60608e0135111561151657600080fd5b6115268e60608f01358f0161140e565b909650945067ffffffffffffffff60808e0135111561154457600080fd5b6115548e60808f01358f0161140e565b909450925067ffffffffffffffff60a08e0135111561157257600080fd5b6115828e60a08f01358f0161140e565b81935080925050509295989b509295989b509295989b565b6000602082840312156115ac57600080fd5b5035919050565b600080604083850312156115c657600080fd5b82359150602083013580151581146115dd57600080fd5b809150509250929050565b6000815180845260005b8181101561160e576020818501810151868301820152016115f2565b81811115611620576000602083870101525b50601f01601f19169290920160200192915050565b6000815160a0845261164a60a08501826115e8565b90506020830151848203602086015261166382826115e8565b9150506040830151848203604086015261167d82826115e8565b9150506060830151848203606086015261169782826115e8565b915050608083015184820360808601526116b182826115e8565b95945050505050565b634e487b7160e01b600052602160045260246000fd5b600381106116e0576116e06116ba565b9052565b8581526001600160a01b038516602082015260a06040820181905260009061170e90830186611635565b828103606084015261172081866115e8565b91505061173060808301846116d0565b9695505050505050565b602081016004831061174e5761174e6116ba565b91905290565b6000806040838503121561176757600080fd5b82359150611777602084016113d5565b90509250929050565b602081528151602082015260018060a01b0360208301511660408201526000604083015160a060608401526117b860c0840182611635565b90506060840151601f198483030160808501526117d582826115e8565b91505060808401516117ea60a08501826116d0565b509392505050565b6020808252600a908201526927b7363c9030b236b4b760b11b604082015260600190565b60006001820161183657634e487b7160e01b600052601160045260246000fd5b5060010190565b60208101610e2582846116d0565b600181811c9082168061185f57607f821691505b60208210810361187f57634e487b7160e01b600052602260045260246000fd5b5091905056fea2646970667358221220b123e106f643060d40e715fadf8594394006c179466ed3cec81c2b32420dfb7664736f6c634300080d0033",
  "immutableReferences": {},
  "source": "// SPDX-License-Identifier: MIT\r\npragma solidity ^0.8.13;\r\n\r\ncontract LandRegistryPoC {\r\n    enum Status { Pending, Approved, Rejected }\r\n    enum Role   { None, Submitter, Officer, Admin }\r\n\r\n    struct LandDetails {\r\n        string ownerName;\r\n        string locationAddress;\r\n        string areaSize;\r\n        string pictureHash;\r\n        string pictureUrl;      //  new field\r\n    }\r\n\r\n    struct LandPaper {\r\n        uint id;\r\n        address owner;\r\n        LandDetails details;\r\n        string docHash;\r\n        Status status;\r\n    }\r\n\r\n    address public admin;\r\n    uint    public nextId;\r\n    uint    public requiredApprovals = 2;\r\n\r\n    mapping(address => bool)                   public submitters;\r\n    mapping(uint    => LandPaper)              public landPapers;\r\n    mapping(address => bool)                   public authorizedOfficers;\r\n    mapping(uint    => mapping(address=>bool)) public approvals;\r\n    mapping(uint    => uint)                   public approvalCount;\r\n\r\n    event Submitted(uint indexed id, address indexed owner);\r\n    event Reviewed(uint indexed id, address indexed officer, Status status);\r\n    event OfficerAdded(address indexed officer);\r\n    event OfficerRemoved(address indexed officer);\r\n    event SubmitterAdded(address indexed who);\r\n\r\n    constructor() {\r\n        admin = msg.sender;\r\n        authorizedOfficers[msg.sender] = true;\r\n        submitters[msg.sender] = true;\r\n    }\r\n\r\n    modifier onlyAdmin() {\r\n        require(msg.sender == admin, \"Only admin\");\r\n        _;\r\n    }\r\n\r\n    modifier onlyOfficer() {\r\n        require(authorizedOfficers[msg.sender], \"Not an officer\");\r\n        _;\r\n    }\r\n\r\n    modifier onlySubmitter() {\r\n        require(submitters[msg.sender], \"Not a submitter\");\r\n        _;\r\n    }\r\n\r\n    function addOfficer(address officer) external onlyAdmin {\r\n        authorizedOfficers[officer] = true;\r\n        emit OfficerAdded(officer);\r\n    }\r\n\r\n    function removeOfficer(address officer) external onlyAdmin {\r\n        authorizedOfficers[officer] = false;\r\n        emit OfficerRemoved(officer);\r\n    }\r\n\r\n    function addSubmitter(address who) external onlyAdmin {\r\n        submitters[who] = true;\r\n        emit SubmitterAdded(who);\r\n    }\r\n\r\n    /// @notice Submit a new land paper.\r\n    /// @param ownerName Name of the land owner.\r\n    /// @param locationAddress Address or description of the land location.\r\n    /// @param areaSize Size of the land.\r\n    /// @param pictureHash Keccak-256 hash of the land picture.\r\n    /// @param pictureUrl   URL where the land picture is hosted.\r\n    /// @param docHash      Hash of the supporting document.\r\n    function submitLand(\r\n        string calldata ownerName,\r\n        string calldata locationAddress,\r\n        string calldata areaSize,\r\n        string calldata pictureHash,\r\n        string calldata pictureUrl,\r\n        string calldata docHash\r\n    )\r\n        external\r\n        onlySubmitter\r\n    {\r\n        landPapers[nextId] = LandPaper(\r\n            nextId,\r\n            msg.sender,\r\n            LandDetails(ownerName, locationAddress, areaSize, pictureHash, pictureUrl),\r\n            docHash,\r\n            Status.Pending\r\n        );\r\n        emit Submitted(nextId, msg.sender);\r\n        nextId++;\r\n    }\r\n\r\n    function reviewLandMulti(uint id, bool approve) external onlyOfficer {\r\n        require(id < nextId, \"Not found\");\r\n        require(landPapers[id].status == Status.Pending, \"Already finalized\");\r\n        require(!approvals[id][msg.sender], \"Already reviewed by you\");\r\n\r\n        approvals[id][msg.sender] = true;\r\n\r\n        if (!approve) {\r\n            landPapers[id].status = Status.Rejected;\r\n            emit Reviewed(id, msg.sender, Status.Rejected);\r\n            return;\r\n        }\r\n\r\n        approvalCount[id]++;\r\n        if (approvalCount[id] >= requiredApprovals) {\r\n            landPapers[id].status = Status.Approved;\r\n            emit Reviewed(id, msg.sender, Status.Approved);\r\n        }\r\n    }\r\n\r\n    function getLand(uint id) external view returns (LandPaper memory) {\r\n        require(id < nextId, \"Not found\");\r\n        return landPapers[id];\r\n    }\r\n\r\n    function setRequiredApprovals(uint count) external onlyAdmin {\r\n        requiredApprovals = count;\r\n    }\r\n\r\n    function hasReviewed(uint id, address officer) external view returns (bool) {\r\n        return approvals[id][officer];\r\n    }\r\n\r\n    /// @notice Returns 0=No role, 1=Submitter, 2=Officer, 3=Admin\r\n    function getRole(address who) external view returns (Role) {\r\n        if (who == admin) {\r\n            return Role.Admin;\r\n        } else if (authorizedOfficers[who]) {\r\n            return Role.Officer;\r\n        } else if (submitters[who]) {\r\n            return Role.Submitter;\r\n        } else {\r\n            return Role.None;\r\n        }\r\n    }\r\n}\r\n",
  "sourcePath": "C:\\Users\\TUF\\Downloads\\senior_blockchain\\blockcahin_senior_pro\\blockchain\\blockchain\\contracts\\LandRegistryPoc.sol",
  "compiler": {
    "name": "solc",
    "version": "0.8.13+commit.abaa5c0e.Emscripten.clang"
  },
  "schemaVersion": "3.4.16",
  "updatedAt": "2025-05-15T12:52:05.997Z",
  "networkType": "ethereum",
  "devdoc": {
    "kind": "dev",
    "methods": {
      "submitLand(string,string,string,string,string,string)": {
        "params": {
          "areaSize": "Size of the land.",
          "docHash": "Hash of the supporting document.",
          "locationAddress": "Address or description of the land location.",
          "ownerName": "Name of the land owner.",
          "pictureHash": "Keccak-256 hash of the land picture.",
          "pictureUrl": "URL where the land picture is hosted."
        }
      }
    },
    "version": 1
  },
  "userdoc": {
    "kind": "user",
    "methods": {
      "getRole(address)": {
        "notice": "Returns 0=No role, 1=Submitter, 2=Officer, 3=Admin"
      },
      "submitLand(string,string,string,string,string,string)": {
        "notice": "Submit a new land paper."
      }
    },
    "version": 1
  }
}