{
  "contractName": "LandRegistryPoC",
  "abi": [
    {
      "inputs": [],
      "stateMutability": "nonpayable",
      "type": "constructor"
    },
    {
      "anonymous": false,
      "inputs": [
        {
          "indexed": true,
          "internalType": "address",
          "name": "officer",
          "type": "address"
        }
      ],
      "name": "OfficerAdded",
      "type": "event"
    },
    {
      "anonymous": false,
      "inputs": [
        {
          "indexed": true,
          "internalType": "address",
          "name": "officer",
          "type": "address"
        }
      ],
      "name": "OfficerRemoved",
      "type": "event"
    },
    {
      "anonymous": false,
      "inputs": [
        {
          "indexed": true,
          "internalType": "uint256",
          "name": "id",
          "type": "uint256"
        },
        {
          "indexed": false,
          "internalType": "enum LandRegistryPoC.Status",
          "name": "status",
          "type": "uint8"
        }
      ],
      "name": "Reviewed",
      "type": "event"
    },
    {
      "anonymous": false,
      "inputs": [
        {
          "indexed": true,
          "internalType": "uint256",
          "name": "id",
          "type": "uint256"
        },
        {
          "indexed": true,
          "internalType": "address",
          "name": "owner",
          "type": "address"
        }
      ],
      "name": "Submitted",
      "type": "event"
    },
    {
      "anonymous": false,
      "inputs": [
        {
          "indexed": true,
          "internalType": "address",
          "name": "who",
          "type": "address"
        }
      ],
      "name": "SubmitterAdded",
      "type": "event"
    },
    {
      "inputs": [],
      "name": "admin",
      "outputs": [
        {
          "internalType": "address",
          "name": "",
          "type": "address"
        }
      ],
      "stateMutability": "view",
      "type": "function",
      "constant": true
    },
    {
      "inputs": [
        {
          "internalType": "uint256",
          "name": "",
          "type": "uint256"
        }
      ],
      "name": "approvalCount",
      "outputs": [
        {
          "internalType": "uint256",
          "name": "",
          "type": "uint256"
        }
      ],
      "stateMutability": "view",
      "type": "function",
      "constant": true
    },
    {
      "inputs": [
        {
          "internalType": "uint256",
          "name": "",
          "type": "uint256"
        },
        {
          "internalType": "address",
          "name": "",
          "type": "address"
        }
      ],
      "name": "approvals",
      "outputs": [
        {
          "internalType": "bool",
          "name": "",
          "type": "bool"
        }
      ],
      "stateMutability": "view",
      "type": "function",
      "constant": true
    },
    {
      "inputs": [
        {
          "internalType": "address",
          "name": "",
          "type": "address"
        }
      ],
      "name": "authorizedOfficers",
      "outputs": [
        {
          "internalType": "bool",
          "name": "",
          "type": "bool"
        }
      ],
      "stateMutability": "view",
      "type": "function",
      "constant": true
    },
    {
      "inputs": [
        {
          "internalType": "uint256",
          "name": "",
          "type": "uint256"
        }
      ],
      "name": "landPapers",
      "outputs": [
        {
          "internalType": "uint256",
          "name": "id",
          "type": "uint256"
        },
        {
          "internalType": "address",
          "name": "owner",
          "type": "address"
        },
        {
          "components": [
            {
              "internalType": "string",
              "name": "ownerName",
              "type": "string"
            },
            {
              "internalType": "string",
              "name": "locationAddress",
              "type": "string"
            },
            {
              "internalType": "string",
              "name": "areaSize",
              "type": "string"
            },
            {
              "internalType": "string",
              "name": "pictureHash",
              "type": "string"
            }
          ],
          "internalType": "struct LandRegistryPoC.LandDetails",
          "name": "details",
          "type": "tuple"
        },
        {
          "internalType": "string",
          "name": "docHash",
          "type": "string"
        },
        {
          "internalType": "enum LandRegistryPoC.Status",
          "name": "status",
          "type": "uint8"
        }
      ],
      "stateMutability": "view",
      "type": "function",
      "constant": true
    },
    {
      "inputs": [],
      "name": "nextId",
      "outputs": [
        {
          "internalType": "uint256",
          "name": "",
          "type": "uint256"
        }
      ],
      "stateMutability": "view",
      "type": "function",
      "constant": true
    },
    {
      "inputs": [],
      "name": "requiredApprovals",
      "outputs": [
        {
          "internalType": "uint256",
          "name": "",
          "type": "uint256"
        }
      ],
      "stateMutability": "view",
      "type": "function",
      "constant": true
    },
    {
      "inputs": [
        {
          "internalType": "address",
          "name": "",
          "type": "address"
        }
      ],
      "name": "submitters",
      "outputs": [
        {
          "internalType": "bool",
          "name": "",
          "type": "bool"
        }
      ],
      "stateMutability": "view",
      "type": "function",
      "constant": true
    },
    {
      "inputs": [
        {
          "internalType": "address",
          "name": "officer",
          "type": "address"
        }
      ],
      "name": "addOfficer",
      "outputs": [],
      "stateMutability": "nonpayable",
      "type": "function"
    },
    {
      "inputs": [
        {
          "internalType": "address",
          "name": "officer",
          "type": "address"
        }
      ],
      "name": "removeOfficer",
      "outputs": [],
      "stateMutability": "nonpayable",
      "type": "function"
    },
    {
      "inputs": [
        {
          "internalType": "address",
          "name": "who",
          "type": "address"
        }
      ],
      "name": "addSubmitter",
      "outputs": [],
      "stateMutability": "nonpayable",
      "type": "function"
    },
    {
      "inputs": [
        {
          "internalType": "string",
          "name": "ownerName",
          "type": "string"
        },
        {
          "internalType": "string",
          "name": "locationAddress",
          "type": "string"
        },
        {
          "internalType": "string",
          "name": "areaSize",
          "type": "string"
        },
        {
          "internalType": "string",
          "name": "pictureHash",
          "type": "string"
        },
        {
          "internalType": "string",
          "name": "docHash",
          "type": "string"
        }
      ],
      "name": "submitLand",
      "outputs": [],
      "stateMutability": "nonpayable",
      "type": "function"
    },
    {
      "inputs": [
        {
          "internalType": "uint256",
          "name": "id",
          "type": "uint256"
        },
        {
          "internalType": "bool",
          "name": "approve",
          "type": "bool"
        }
      ],
      "name": "reviewLandMulti",
      "outputs": [],
      "stateMutability": "nonpayable",
      "type": "function"
    },
    {
      "inputs": [
        {
          "internalType": "uint256",
          "name": "id",
          "type": "uint256"
        }
      ],
      "name": "getLand",
      "outputs": [
        {
          "components": [
            {
              "internalType": "uint256",
              "name": "id",
              "type": "uint256"
            },
            {
              "internalType": "address",
              "name": "owner",
              "type": "address"
            },
            {
              "components": [
                {
                  "internalType": "string",
                  "name": "ownerName",
                  "type": "string"
                },
                {
                  "internalType": "string",
                  "name": "locationAddress",
                  "type": "string"
                },
                {
                  "internalType": "string",
                  "name": "areaSize",
                  "type": "string"
                },
                {
                  "internalType": "string",
                  "name": "pictureHash",
                  "type": "string"
                }
              ],
              "internalType": "struct LandRegistryPoC.LandDetails",
              "name": "details",
              "type": "tuple"
            },
            {
              "internalType": "string",
              "name": "docHash",
              "type": "string"
            },
            {
              "internalType": "enum LandRegistryPoC.Status",
              "name": "status",
              "type": "uint8"
            }
          ],
          "internalType": "struct LandRegistryPoC.LandPaper",
          "name": "",
          "type": "tuple"
        }
      ],
      "stateMutability": "view",
      "type": "function",
      "constant": true
    },
    {
      "inputs": [
        {
          "internalType": "uint256",
          "name": "count",
          "type": "uint256"
        }
      ],
      "name": "setRequiredApprovals",
      "outputs": [],
      "stateMutability": "nonpayable",
      "type": "function"
    },
    {
      "inputs": [
        {
          "internalType": "uint256",
          "name": "id",
          "type": "uint256"
        },
        {
          "internalType": "address",
          "name": "officer",
          "type": "address"
        }
      ],
      "name": "hasReviewed",
      "outputs": [
        {
          "internalType": "bool",
          "name": "",
          "type": "bool"
        }
      ],
      "stateMutability": "view",
      "type": "function",
      "constant": true
    },
    {
      "inputs": [
        {
          "internalType": "address",
          "name": "who",
          "type": "address"
        }
      ],
      "name": "getRole",
      "outputs": [
        {
          "internalType": "enum LandRegistryPoC.Role",
          "name": "",
          "type": "uint8"
        }
      ],
      "stateMutability": "view",
      "type": "function",
      "constant": true
    }
  ],
  "bytecode": "0x60806040526002805534801561001457600080fd5b50600080546001600160a01b0319163390811782558152600560209081526040808320805460ff1990811660019081179092556003909352922080549091169091179055611643806100676000396000f3fe608060405234801561001057600080fd5b506004361061010b5760003560e01c806361b8ce8c116100a2578063ab2850da11610071578063ab2850da14610250578063b98de9f21461027e578063d9803cb214610291578063f02dd53f146102a4578063f851a440146102c457600080fd5b806361b8ce8c14610218578063719a0f8c146102215780637c7198cc1461023457806399c1aadc1461024757600080fd5b80632be9e04b116100de5780632be9e04b1461018357806340ad01ea146101a757806344276733146101d55780634a7b7677146101f557600080fd5b80630656043514610110578063072900f914610148578063222a242e1461015d5780632820627214610170575b600080fd5b61013361011e3660046111e0565b60036020526000908152604090205460ff1681565b60405190151581526020015b60405180910390f35b61015b6101563660046111e0565b6102ef565b005b61015b61016b366004611202565b61036e565b61015b61017e36600461121b565b61039d565b610196610191366004611202565b6105d3565b60405161013f959493929190611332565b6101c76101b5366004611202565b60076020526000908152604090205481565b60405190815260200161013f565b6101e86101e33660046111e0565b6108e9565b60405161013f9190611388565b6101336102033660046111e0565b60056020526000908152604090205460ff1681565b6101c760015481565b61015b61022f3660046111e0565b610967565b6101336102423660046113a2565b6109da565b6101c760025481565b61013361025e3660046113a2565b600660209081526000928352604080842090915290825290205460ff1681565b61015b61028c366004611417565b610a07565b61015b61029f3660046111e0565b610cf6565b6102b76102b2366004611202565b610d6c565b60405161013f9190611508565b6000546102d7906001600160a01b031681565b6040516001600160a01b03909116815260200161013f565b6000546001600160a01b031633146103225760405162461bcd60e51b81526004016103199061157a565b60405180910390fd5b6001600160a01b038116600081815260036020526040808220805460ff19166001179055517fb079bc2cbde1f186e0b351d4a87c4597e3ed098f571548617449e73506428d8b9190a250565b6000546001600160a01b031633146103985760405162461bcd60e51b81526004016103199061157a565b600255565b3360009081526005602052604090205460ff166103ed5760405162461bcd60e51b815260206004820152600e60248201526d2737ba1030b71037b33334b1b2b960911b6044820152606401610319565b60008281526004602052604081206007015460ff16600281111561041357610413611308565b146104535760405162461bcd60e51b815260206004820152601060248201526f105b1c9958591e481c995d9a595dd95960821b6044820152606401610319565b600082815260066020908152604080832033845290915290205460ff16156104bd5760405162461bcd60e51b815260206004820152601760248201527f416c726561647920726576696577656420627920796f750000000000000000006044820152606401610319565b60008281526006602090815260408083203384529091529020805460ff191660011790558061054657600082815260046020526040902060070180546002919060ff19166001830217905550817f6d4602bc815694f75ad2096835226bfc1ae298df722b4d737e8e392ee01ff3e7600260405161053a919061159e565b60405180910390a25050565b6000828152600760205260408120805491610560836115ac565b9091555050600254600083815260076020526040902054106105cf57600082815260046020526040902060070180546001919060ff191682800217905550817f6d4602bc815694f75ad2096835226bfc1ae298df722b4d737e8e392ee01ff3e7600160405161053a919061159e565b5050565b600460205260009081526040908190208054600182015483516080810190945260028301805492946001600160a01b03909216939282908290610615906115d3565b80601f0160208091040260200160405190810160405280929190818152602001828054610641906115d3565b801561068e5780601f106106635761010080835404028352916020019161068e565b820191906000526020600020905b81548152906001019060200180831161067157829003601f168201915b505050505081526020016001820180546106a7906115d3565b80601f01602080910402602001604051908101604052809291908181526020018280546106d3906115d3565b80156107205780601f106106f557610100808354040283529160200191610720565b820191906000526020600020905b81548152906001019060200180831161070357829003601f168201915b50505050508152602001600282018054610739906115d3565b80601f0160208091040260200160405190810160405280929190818152602001828054610765906115d3565b80156107b25780601f10610787576101008083540402835291602001916107b2565b820191906000526020600020905b81548152906001019060200180831161079557829003601f168201915b505050505081526020016003820180546107cb906115d3565b80601f01602080910402602001604051908101604052809291908181526020018280546107f7906115d3565b80156108445780601f1061081957610100808354040283529160200191610844565b820191906000526020600020905b81548152906001019060200180831161082757829003601f168201915b5050505050815250509080600601805461085d906115d3565b80601f0160208091040260200160405190810160405280929190818152602001828054610889906115d3565b80156108d65780601f106108ab576101008083540402835291602001916108d6565b820191906000526020600020905b8154815290600101906020018083116108b957829003601f168201915b5050506007909301549192505060ff1685565b600080546001600160a01b039081169083160361090857506003919050565b6001600160a01b03821660009081526005602052604090205460ff161561093157506002919050565b6001600160a01b03821660009081526003602052604090205460ff161561095a57506001919050565b506000919050565b919050565b6000546001600160a01b031633146109915760405162461bcd60e51b81526004016103199061157a565b6001600160a01b038116600081815260056020526040808220805460ff19169055517fc71ac73682f965d639a2f97202d5b162f5ea75f1ef0e933bad7f1db870a4c2549190a250565b60008281526006602090815260408083206001600160a01b038516845290915290205460ff165b92915050565b3360009081526003602052604090205460ff16610a585760405162461bcd60e51b815260206004820152600f60248201526e2737ba10309039bab136b4ba3a32b960891b6044820152606401610319565b6040518060a001604052806001548152602001336001600160a01b0316815260200160405180608001604052808d8d8080601f016020809104026020016040519081016040528093929190818152602001838380828437600092019190915250505090825250604080516020601f8e018190048102820181019092528c815291810191908d908d9081908401838280828437600092019190915250505090825250604080516020601f8c018190048102820181019092528a815291810191908b908b9081908401838280828437600092019190915250505090825250604080516020601f8a018190048102820181019092528881529181019190899089908190840183828082843760009201919091525050509152508152604080516020601f8601819004810282018101909252848152918101919085908590819084018382808284376000920182905250938552505060209092019150905260018054600090815260046020908152604091829020845181558482015193810180546001600160a01b0319166001600160a01b0390951694909417909355908301518051805191926002850192610c0d92849201906110d0565b506020828101518051610c2692600185019201906110d0565b5060408201518051610c429160028401916020909101906110d0565b5060608201518051610c5e9160038401916020909101906110d0565b50505060608201518051610c7c9160068401916020909101906110d0565b50608082015160078201805460ff19166001836002811115610ca057610ca0611308565b0217905550506001546040513392507fa1a7fb1df88af97284790f533c84a4284660c23f7631de9a03a258de840e4c1590600090a360018054906000610ce5836115ac565b919050555050505050505050505050565b6000546001600160a01b03163314610d205760405162461bcd60e51b81526004016103199061157a565b6001600160a01b038116600081815260056020526040808220805460ff19166001179055517f0a5e350574f3293d09c9df68b92156ccec15be9e07b6cab9616ec2b486d2a4d99190a250565b610d74611154565b600082815260046020908152604091829020825160a0810184528154815260018201546001600160a01b0316928101929092528251608081018452600282018054939492939285019282908290610dca906115d3565b80601f0160208091040260200160405190810160405280929190818152602001828054610df6906115d3565b8015610e435780601f10610e1857610100808354040283529160200191610e43565b820191906000526020600020905b815481529060010190602001808311610e2657829003601f168201915b50505050508152602001600182018054610e5c906115d3565b80601f0160208091040260200160405190810160405280929190818152602001828054610e88906115d3565b8015610ed55780601f10610eaa57610100808354040283529160200191610ed5565b820191906000526020600020905b815481529060010190602001808311610eb857829003601f168201915b50505050508152602001600282018054610eee906115d3565b80601f0160208091040260200160405190810160405280929190818152602001828054610f1a906115d3565b8015610f675780601f10610f3c57610100808354040283529160200191610f67565b820191906000526020600020905b815481529060010190602001808311610f4a57829003601f168201915b50505050508152602001600382018054610f80906115d3565b80601f0160208091040260200160405190810160405280929190818152602001828054610fac906115d3565b8015610ff95780601f10610fce57610100808354040283529160200191610ff9565b820191906000526020600020905b815481529060010190602001808311610fdc57829003601f168201915b5050505050815250508152602001600682018054611016906115d3565b80601f0160208091040260200160405190810160405280929190818152602001828054611042906115d3565b801561108f5780601f106110645761010080835404028352916020019161108f565b820191906000526020600020905b81548152906001019060200180831161107257829003601f168201915b5050509183525050600782015460209091019060ff1660028111156110b6576110b6611308565b60028111156110c7576110c7611308565b90525092915050565b8280546110dc906115d3565b90600052602060002090601f0160209004810192826110fe5760008555611144565b82601f1061111757805160ff1916838001178555611144565b82800160010185558215611144579182015b82811115611144578251825591602001919060010190611129565b506111509291506111b4565b5090565b6040518060a001604052806000815260200160006001600160a01b031681526020016111a16040518060800160405280606081526020016060815260200160608152602001606081525090565b8152606060208201526040016000905290565b5b8082111561115057600081556001016111b5565b80356001600160a01b038116811461096257600080fd5b6000602082840312156111f257600080fd5b6111fb826111c9565b9392505050565b60006020828403121561121457600080fd5b5035919050565b6000806040838503121561122e57600080fd5b823591506020830135801515811461124557600080fd5b809150509250929050565b6000815180845260005b818110156112765760208185018101518683018201520161125a565b81811115611288576000602083870101525b50601f01601f19169290920160200192915050565b60008151608084526112b26080850182611250565b9050602083015184820360208601526112cb8282611250565b915050604083015184820360408601526112e58282611250565b915050606083015184820360608601526112ff8282611250565b95945050505050565b634e487b7160e01b600052602160045260246000fd5b6003811061132e5761132e611308565b9052565b8581526001600160a01b038516602082015260a06040820181905260009061135c9083018661129d565b828103606084015261136e8186611250565b91505061137e608083018461131e565b9695505050505050565b602081016004831061139c5761139c611308565b91905290565b600080604083850312156113b557600080fd5b823591506113c5602084016111c9565b90509250929050565b60008083601f8401126113e057600080fd5b50813567ffffffffffffffff8111156113f857600080fd5b60208301915083602082850101111561141057600080fd5b9250929050565b60008060008060008060008060008060a08b8d03121561143657600080fd5b8a3567ffffffffffffffff8082111561144e57600080fd5b61145a8e838f016113ce565b909c509a5060208d013591508082111561147357600080fd5b61147f8e838f016113ce565b909a50985060408d013591508082111561149857600080fd5b6114a48e838f016113ce565b909850965060608d01359150808211156114bd57600080fd5b6114c98e838f016113ce565b909650945060808d01359150808211156114e257600080fd5b506114ef8d828e016113ce565b915080935050809150509295989b9194979a5092959850565b602081528151602082015260018060a01b0360208301511660408201526000604083015160a0606084015261154060c084018261129d565b90506060840151601f1984830301608085015261155d8282611250565b915050608084015161157260a085018261131e565b509392505050565b6020808252600a908201526927b7363c9030b236b4b760b11b604082015260600190565b60208101610a01828461131e565b6000600182016115cc57634e487b7160e01b600052601160045260246000fd5b5060010190565b600181811c908216806115e757607f821691505b60208210810361160757634e487b7160e01b600052602260045260246000fd5b5091905056fea2646970667358221220d23448bbc2040b6cc21d6a4a6a1565d7309737563ef0f5558516dd8d749205e664736f6c634300080d0033",
  "immutableReferences": {},
  "source": "// SPDX-License-Identifier: MIT\r\npragma solidity ^0.8.13;\r\n\r\ncontract LandRegistryPoC {\r\n    enum Status { Pending, Approved, Rejected }\r\n    enum Role   { None, Submitter, Officer, Admin }\r\n\r\n    struct LandDetails {\r\n        string ownerName;\r\n        string locationAddress;\r\n        string areaSize;\r\n        string pictureHash;\r\n    }\r\n\r\n    struct LandPaper {\r\n        uint id;\r\n        address owner;\r\n        LandDetails details;\r\n        string docHash;\r\n        Status status;\r\n    }\r\n\r\n    address public admin;\r\n    uint    public nextId;\r\n    uint    public requiredApprovals = 2;\r\n\r\n    mapping(address => bool)                   public submitters;\r\n    mapping(uint    => LandPaper)              public landPapers;\r\n    mapping(address => bool)                   public authorizedOfficers;\r\n    mapping(uint    => mapping(address=>bool)) public approvals;\r\n    mapping(uint    => uint)                   public approvalCount;\r\n\r\n    event Submitted(uint indexed id, address indexed owner);\r\n    event Reviewed(uint indexed id, Status status);\r\n    event OfficerAdded(address indexed officer);\r\n    event OfficerRemoved(address indexed officer);\r\n    event SubmitterAdded(address indexed who);\r\n\r\n    constructor() {\r\n        admin = msg.sender;\r\n        authorizedOfficers[msg.sender] = true;\r\n        submitters[msg.sender] = true;\r\n    }\r\n\r\n    modifier onlyAdmin() {\r\n        require(msg.sender == admin, \"Only admin\");\r\n        _;\r\n    }\r\n\r\n    modifier onlyOfficer() {\r\n        require(authorizedOfficers[msg.sender], \"Not an officer\");\r\n        _;\r\n    }\r\n\r\n    modifier onlySubmitter() {\r\n        require(submitters[msg.sender], \"Not a submitter\");\r\n        _;\r\n    }\r\n\r\n    function addOfficer(address officer) external onlyAdmin {\r\n        authorizedOfficers[officer] = true;\r\n        emit OfficerAdded(officer);\r\n    }\r\n\r\n    function removeOfficer(address officer) external onlyAdmin {\r\n        authorizedOfficers[officer] = false;\r\n        emit OfficerRemoved(officer);\r\n    }\r\n\r\n    function addSubmitter(address who) external onlyAdmin {\r\n        submitters[who] = true;\r\n        emit SubmitterAdded(who);\r\n    }\r\n\r\n    function submitLand(\r\n        string calldata ownerName,\r\n        string calldata locationAddress,\r\n        string calldata areaSize,\r\n        string calldata pictureHash,\r\n        string calldata docHash\r\n    )\r\n        external\r\n        onlySubmitter\r\n    {\r\n        landPapers[nextId] = LandPaper(\r\n            nextId,\r\n            msg.sender,\r\n            LandDetails(ownerName, locationAddress, areaSize, pictureHash),\r\n            docHash,\r\n            Status.Pending\r\n        );\r\n        emit Submitted(nextId, msg.sender);\r\n        nextId++;\r\n    }\r\n\r\n    function reviewLandMulti(uint id, bool approve) external onlyOfficer {\r\n        require(landPapers[id].status == Status.Pending, \"Already reviewed\");\r\n        require(!approvals[id][msg.sender], \"Already reviewed by you\");\r\n\r\n        approvals[id][msg.sender] = true;\r\n\r\n        if (!approve) {\r\n            landPapers[id].status = Status.Rejected;\r\n            emit Reviewed(id, Status.Rejected);\r\n            return;\r\n        }\r\n\r\n        approvalCount[id]++;\r\n        if (approvalCount[id] >= requiredApprovals) {\r\n            landPapers[id].status = Status.Approved;\r\n            emit Reviewed(id, Status.Approved);\r\n        }\r\n    }\r\n\r\n    function getLand(uint id) external view returns (LandPaper memory) {\r\n        return landPapers[id];\r\n    }\r\n\r\n    function setRequiredApprovals(uint count) external onlyAdmin {\r\n        requiredApprovals = count;\r\n    }\r\n\r\n    function hasReviewed(uint id, address officer) external view returns (bool) {\r\n        return approvals[id][officer];\r\n    }\r\n\r\n    /// @notice Returns 0=No role, 1=Submitter, 2=Officer, 3=Admin\r\n    function getRole(address who) external view returns (Role) {\r\n        if (who == admin) {\r\n            return Role.Admin;\r\n        } else if (authorizedOfficers[who]) {\r\n            return Role.Officer;\r\n        } else if (submitters[who]) {\r\n            return Role.Submitter;\r\n        } else {\r\n            return Role.None;\r\n        }\r\n    }\r\n}\r\n",
  "sourcePath": "C:\\Users\\TUF\\Downloads\\senior_blockchain\\blockchain\\contracts\\LandRegistryPoc.sol",
  "compiler": {
    "name": "solc",
    "version": "0.8.13+commit.abaa5c0e.Emscripten.clang"
  },
  "schemaVersion": "3.4.16",
  "updatedAt": "2025-05-08T13:32:04.028Z",
  "networkType": "ethereum",
  "devdoc": {
    "kind": "dev",
    "methods": {},
    "version": 1
  },
  "userdoc": {
    "kind": "user",
    "methods": {
      "getRole(address)": {
        "notice": "Returns 0=No role, 1=Submitter, 2=Officer, 3=Admin"
      }
    },
    "version": 1
  }
}